:040000003EEF05F0DA
:100800000020202053454E414920203131382020FE
:10081000200053657269616C3A200000036E000E7F
:10082000026E0250D8B417EF04F019EF04F024EF71
:1008300004F003C001F0013AF00E011681500F0BD5
:100840000110816E28EF04F081500F0B0310816EB0
:1008500081948186100EE82EFED700D08196022A60
:10086000010E026436EF04F038EF04F011EF04F0EB
:100870000304D8B43EEF04F040EF04F049EF04F075
:10088000020E0318D8A447EF04F049EF04F052EF2A
:1008900004F0030E016E980EE82EFED7012EFCD751
:1008A00056EF04F0100EE82EFED700D01200F9EC3F
:1008B00004F073EC05F053EC05F0030E936E010E9B
:1008C000046E010E91EC04F0010E046E080E056E2C
:1008D00023EC05F0010E046E020E91EC04F0120EF2
:1008E000046E080E056E23EC05F069EC05F0E806D1
:1008F000D8A47DEF04F07FEF04F075EF04F0090E4B
:10090000046E020E91EC04F07AEC05F00C6E0C50C3
:10091000CAEC04F00C505EEC05F075EF04F000EF4B
:1009200000F0076E0406A9EF04F00450800F086E73
:10093000C6EF04F00450C00F086EC6EF04F0045078
:10094000940F086EC6EF04F00450D40F086EC6EF83
:1009500004F00750056E066A0650000AD8B4B3EFDB
:1009600004F0C6EF04F00550010AD8B495EF04F086
:10097000030AD8B49AEF04F0010AD8B49FEF04F048
:10098000070AD8B4A4EF04F0C6EF04F008500EEC48
:1009900004F01200026E000E036E0350D8B4D3EFC1
:1009A00004F0D5EF04F0E0EF04F002C001F0013AEA
:1009B000F00E011681500F0B0110816EE4EF04F070
:1009C00081500F0B0210816E81848186100EE82EFB
:1009D000FED700D08196032A010E0364F2EF04F0E3
:1009E000F4EF04F0CDEF04F0100EE82EFED700D0A7
:1009F000120020EE0DF010EE05F0050EDBCFE3FF48
:100A0000E806FCE281500F0B816E81948196140EF2
:100A1000046E7A0EE82EFED7042EFCD7000E0B6E65
:100A2000050E0B24D96EDA6A000EDA22DF500EECC6
:100A300004F00B2A050E0B6420EF05F022EF05F001
:100A400010EF05F012002FEF05F004C0F6FF05C00F
:100A5000F7FF0800F550CAEC04F0044A052A04C068
:100A6000F6FF05C0F7FF0800F5500009D8A43BEFDA
:100A700005F03DEF05F025EF05F01200EE0EF66EE5
:100A80000A0EF76E000EF86E00EE0DF010EE06F096
:100A90000900F5CFEEFFE550E150FAE1000EF86EE7
:100AA000000157EF04F0948E948C200EAC6E900EE3
:100AB000AB6E400EB86E1F0EAF6E1200016E01C01D
:100AC000ADFFACA266EF05F068EF05F061EF05F051
:100AD00012009EBA6EEF05F071EF05F0010E72EF95
:100AE00005F0000E1200010E0EEC04F0120033327D
:080AF000280C0601AE501200B3
:020000040020DA
:08000000FFFFFFFFFFFFFFFF00
:020000040030CA
:0E000000000C0000FF8181FF0FC00FE00F40D9
:00000001FF
